{
  "contractName": "AuctionFactory",
  "abi": [
    {
      "constant": true,
      "inputs": [],
      "name": "enigmaAddress",
      "outputs": [
        {
          "name": "",
          "type": "address"
        }
      ],
      "payable": false,
      "stateMutability": "view",
      "type": "function",
      "signature": "0x44f97995"
    },
    {
      "constant": true,
      "inputs": [
        {
          "name": "",
          "type": "uint256"
        }
      ],
      "name": "auctions",
      "outputs": [
        {
          "name": "",
          "type": "address"
        }
      ],
      "payable": false,
      "stateMutability": "view",
      "type": "function",
      "signature": "0x571a26a0"
    },
    {
      "constant": true,
      "inputs": [],
      "name": "enigmaCollectibleAddress",
      "outputs": [
        {
          "name": "",
          "type": "address"
        }
      ],
      "payable": false,
      "stateMutability": "view",
      "type": "function",
      "signature": "0x6d17fe1c"
    },
    {
      "inputs": [
        {
          "name": "_enigmaAddress",
          "type": "address"
        },
        {
          "name": "_enigmaCollectibleAddress",
          "type": "address"
        }
      ],
      "payable": false,
      "stateMutability": "nonpayable",
      "type": "constructor",
      "signature": "constructor"
    },
    {
      "anonymous": false,
      "inputs": [
        {
          "indexed": false,
          "name": "auction",
          "type": "address"
        }
      ],
      "name": "newAuction",
      "type": "event",
      "signature": "0x9dc2853fa05a54e1c31cb87878685b663faa3f2d8e0d88ea64903bfa5c4fa5af"
    },
    {
      "constant": false,
      "inputs": [
        {
          "name": "_auctionLength",
          "type": "uint256"
        },
        {
          "name": "_startingPrice",
          "type": "uint256"
        }
      ],
      "name": "createAuction",
      "outputs": [
        {
          "name": "",
          "type": "address"
        }
      ],
      "payable": false,
      "stateMutability": "nonpayable",
      "type": "function",
      "signature": "0x0121683f"
    },
    {
      "constant": true,
      "inputs": [],
      "name": "getAuctionAddresses",
      "outputs": [
        {
          "name": "",
          "type": "address[]"
        }
      ],
      "payable": false,
      "stateMutability": "view",
      "type": "function",
      "signature": "0x4802ae24"
    }
  ],
  "bytecode": "0x608060405234801561001057600080fd5b506040516040806114ab833981016040528051602090910151600160a060020a0382161580159061004a5750600154600160a060020a0316155b151561005557600080fd5b600160a060020a038116158015906100765750600254600160a060020a0316155b151561008157600080fd5b60018054600160a060020a03938416600160a060020a031991821617909155600280549290931691161790556113ef806100bc6000396000f30060806040526004361061006c5763ffffffff7c01000000000000000000000000000000000000000000000000000000006000350416630121683f811461007157806344f97995146100a85780634802ae24146100bd578063571a26a0146101225780636d17fe1c1461013a575b600080fd5b34801561007d57600080fd5b5061008c60043560243561014f565b60408051600160a060020a039092168252519081900360200190f35b3480156100b457600080fd5b5061008c610259565b3480156100c957600080fd5b506100d2610268565b60408051602080825283518183015283519192839290830191858101910280838360005b8381101561010e5781810151838201526020016100f6565b505050509050019250505060405180910390f35b34801561012e57600080fd5b5061008c6004356102ca565b34801561014657600080fd5b5061008c6102f2565b6001546002546000918291339186918691600160a060020a039081169116610175610301565b600160a060020a03958616815260208101949094526040808501939093529084166060840152909216608082015290519081900360a001906000f0801580156101c2573d6000803e3d6000fd5b50600080546001810182559080527f290decd9548b62a8d60345a988386fc84ba6bc95484008f6362f93160ef3e563018054600160a060020a03831673ffffffffffffffffffffffffffffffffffffffff19909116811790915560408051918252519192507f9dc2853fa05a54e1c31cb87878685b663faa3f2d8e0d88ea64903bfa5c4fa5af919081900360200190a15092915050565b600154600160a060020a031681565b606060008054806020026020016040519081016040528092919081815260200182805480156102c057602002820191906000526020600020905b8154600160a060020a031681526001909101906020018083116102a2575b5050505050905090565b60008054829081106102d857fe5b600091825260209091200154600160a060020a0316905081565b600254600160a060020a031681565b6040516110b280610312833901905600608060405234801561001057600080fd5b5060405160a0806110b28339810160409081528151602083015191830151606084015160809094015160008054600160a060020a03948516600160a060020a03199182161782556004939093554260018190559094016002556009805495841695831695909517909455600a80549290941691161760a060020a60ff0219169091556110109081906100a290396000f3006080604052600436106101535763ffffffff7c010000000000000000000000000000000000000000000000000000000060003504166301b62b7881146101585780632fb3c48f146101815780633197cbb6146101b557806331e37530146101dc5780633a4b66f1146101fe5780633ccfd60b1461020657806355291dbd1461021b57806378e979251461023057806388901205146102455780638da5cb5b1461032f5780638e7ea5b214610344578063b24fd5c514610359578063b88a802f1461036e578063c19d93fb14610383578063c1f52604146103bc578063cb1e17cf146103d1578063cb6632ef146103f5578063d390b2d11461045a578063d6fbf202146104f0578063dfbf53ae14610505578063e5afa5661461051a578063e945f4261461053b578063ef4cec1f14610550578063f7b6d1a814610571578063fcc8f79314610592578063fe67a54b14610636575b600080fd5b34801561016457600080fd5b5061016d61064b565b604080519115158252519081900360200190f35b34801561018d57600080fd5b5061019960043561066d565b60408051600160a060020a039092168252519081900360200190f35b3480156101c157600080fd5b506101ca610695565b60408051918252519081900360200190f35b3480156101e857600080fd5b506101fc600480356024810191013561069b565b005b6101fc6107bc565b34801561021257600080fd5b506101fc6107f7565b34801561022757600080fd5b506101fc61087d565b34801561023c57600080fd5b506101ca6108e9565b34801561025157600080fd5b506040805160206004803580820135838102808601850190965280855261030c95369593946024949385019291829185019084908082843750506040805187358901803560208181028481018201909552818452989b9a998901989297509082019550935083925085019084908082843750506040805187358901803560208181028481018201909552818452989b9a9989019892975090820195509350839250850190849080828437509497506108ef9650505050505050565b60408051600160a060020a03909316835260208301919091528051918290030190f35b34801561033b57600080fd5b50610199610a00565b34801561035057600080fd5b50610199610a0f565b34801561036557600080fd5b50610199610a46565b34801561037a57600080fd5b506101fc610a55565b34801561038f57600080fd5b50610398610b78565b604051808260028111156103a857fe5b60ff16815260200191505060405180910390f35b3480156103c857600080fd5b506101ca610b88565b3480156103dd57600080fd5b506101fc600160a060020a0360043516602435610b8e565b34801561040157600080fd5b5061040a610c46565b60408051602080825283518183015283519192839290830191858101910280838360005b8381101561044657818101518382015260200161042e565b505050509050019250505060405180910390f35b34801561046657600080fd5b5061047b600160a060020a0360043516610ca8565b6040805160208082528351818301528351919283929083019185019080838360005b838110156104b557818101518382015260200161049d565b50505050905090810190601f1680156104e25780820380516001836020036101000a031916815260200191505b509250505060405180910390f35b3480156104fc57600080fd5b506101ca610dce565b34801561051157600080fd5b50610199610dd4565b34801561052657600080fd5b506101ca600160a060020a0360043516610de3565b34801561054757600080fd5b50610199610df5565b34801561055c57600080fd5b5061016d600160a060020a0360043516610e04565b34801561057d57600080fd5b506101ca600160a060020a0360043516610e22565b34801561059e57600080fd5b506105b3600160a060020a0360043516610e3d565b604051808315151515815260200180602001828103825283818151815260200191508051906020019080838360005b838110156105fa5781810151838201526020016105e2565b50505050905090810190601f1680156106275780820380516001836020036101000a031916815260200191505b50935050505060405180910390f35b34801561064257600080fd5b506101fc610eeb565b600a547501000000000000000000000000000000000000000000900460ff1681565b600880548290811061067b57fe5b600091825260209091200154600160a060020a0316905081565b60025481565b60025442106106a957600080fd5b6004543360009081526007602052604090205410156106c757600080fd5b3360009081526006602052604090206106e4906001018383610f4c565b503360009081526006602052604090205460ff16151561076857336000818152600660205260408120805460ff191660019081179091556008805491820181559091527ff3f7a9fe364faab93b216da50a3214154f22a0a2b415b23a84c8169e8b636ee301805473ffffffffffffffffffffffffffffffffffffffff191690911790555b7faf79f260d5d20710e65b2ec84855f86a4d8911fb087d40353f63e738e06320b582826040518080602001828103825284848281815260200192508082843760405192018290039550909350505050a15050565b6000600a5460a060020a900460ff1660028111156107d657fe5b146107e057600080fd5b336000908152600760205260409020805434019055565b60006002600a5460a060020a900460ff16600281111561081357fe5b1461081d57600080fd5b336000908152600760205260408120541161083757600080fd5b5033600081815260076020526040808220805490839055905190929183156108fc02918491818181858888f19350505050158015610879573d6000803e3d6000fd5b5050565b600054600160a060020a0316331461089457600080fd5b6002600a5460a060020a900460ff1660028111156108ae57fe5b146108b857600080fd5b600554604051339180156108fc02916000818181858888f193505050501580156108e6573d6000803e3d6000fd5b50565b60015481565b600080600080600080885111151561090657600080fd5b5060005b87518110156109ee5781878281518110151561092257fe5b906020019060200201511180156109675750858181518110151561094257fe5b90602001906020020151878281518110151561095a57fe5b9060200190602002015111155b156109a157868181518110151561097a57fe5b906020019060200201519150878181518110151561099457fe5b9060200190602002015192505b85818151811015156109af57fe5b9060200190602002015187828151811015156109c757fe5b9060200190602002015111156109e65761ffff945061045793506109f5565b60010161090a565b8282945094505b505050935093915050565b600054600160a060020a031681565b60006002600a5460a060020a900460ff166002811115610a2b57fe5b14610a3557600080fd5b50600354600160a060020a03165b90565b600954600160a060020a031681565b6002600a5460a060020a900460ff166002811115610a6f57fe5b14610a7957600080fd5b600354600160a060020a03163314610a9057600080fd5b600a547501000000000000000000000000000000000000000000900460ff1615610ab957600080fd5b600a805475ff000000000000000000000000000000000000000000191675010000000000000000000000000000000000000000001790819055600254604080517f79c65068000000000000000000000000000000000000000000000000000000008152336004820152602481019290925251600160a060020a03909216916379c650689160448082019260009290919082900301818387803b158015610b5e57600080fd5b505af1158015610b72573d6000803e3d6000fd5b50505050565b600a5460a060020a900460ff1681565b60055481565b6003805473ffffffffffffffffffffffffffffffffffffffff1916600160a060020a0384169081179091556005829055600a805474ff0000000000000000000000000000000000000000191674020000000000000000000000000000000000000000179055600081815260076020908152604091829020805485900390558151928352820183905280517f9c2270628a9b29d30ae96b6c4c14ed646ee134febdce38a5b77f2bde9cea2e209281900390910190a15050565b60606008805480602002602001604051908101604052809291908181526020018280548015610c9e57602002820191906000526020600020905b8154600160a060020a03168152600190910190602001808311610c80575b5050505050905090565b6060610cb382610e04565b1515610d2057604080517f08c379a000000000000000000000000000000000000000000000000000000000815260206004820152601860248201527f5573657220686173206e6f7420626964646564207965742e0000000000000000604482015290519081900360640190fd5b600160a060020a038216600090815260066020908152604091829020600190810180548451600293821615610100026000190190911692909204601f810184900484028301840190945283825290929091830182828015610dc25780601f10610d9757610100808354040283529160200191610dc2565b820191906000526020600020905b815481529060010190602001808311610da557829003601f168201915b50505050509050919050565b60045481565b600354600160a060020a031681565b60076020526000908152604090205481565b600a54600160a060020a031681565b600160a060020a031660009081526006602052604090205460ff1690565b600160a060020a031660009081526007602052604090205490565b6006602090815260009182526040918290208054600180830180548651600261010094831615949094026000190190911692909204601f810186900486028301860190965285825260ff909216949293909290830182828015610ee15780601f10610eb657610100808354040283529160200191610ee1565b820191906000526020600020905b815481529060010190602001808311610ec457829003601f168201915b5050505050905082565b600054600160a060020a03163314610f0257600080fd5b6000600a5460a060020a900460ff166002811115610f1c57fe5b14610f2657600080fd5b600a805474ff0000000000000000000000000000000000000000191660a060020a179055565b828054600181600116156101000203166002900490600052602060002090601f016020900481019282601f10610f8d5782800160ff19823516178555610fba565b82800160010185558215610fba579182015b82811115610fba578235825591602001919060010190610f9f565b50610fc6929150610fca565b5090565b610a4391905b80821115610fc65760008155600101610fd05600a165627a7a72305820d2b2c01a8a88531b521fdf8f406b7dcfb58fcd72bf24194287f20788184b0f6b0029a165627a7a72305820334b5f16a3318d1cdb833a4ddcc2fa4ac39e93abdac9ba8e699f23f8b654ba8e0029",
  "source": "// AuctionFactory.sol\n// Enigma, 2018\n// Proxy for deploying Auction contracts.\n\npragma solidity ^0.4.24;\n\nimport \"./Auction.sol\";\n\ncontract AuctionFactory {\n\n  /* EVENTS */\n  event newAuction(address auction);\n\n  /* STATE VARIABLES */\n  address[] public auctions;\n  address public enigmaAddress;\n  address public enigmaCollectibleAddress;\n\n  /* CONSTRUCTOR */\n  constructor(address _enigmaAddress, address _enigmaCollectibleAddress) public {\n    require(_enigmaAddress != 0 && enigmaAddress == 0);\n    require(_enigmaCollectibleAddress != 0 && enigmaCollectibleAddress == 0);\n    enigmaAddress = _enigmaAddress;\n    enigmaCollectibleAddress = _enigmaCollectibleAddress;\n  }\n\n  /*\n   * Creates a new auction.\n   * NOTE: _startingPrice must be specified in wei.\n   */\n  function createAuction(uint _auctionLength, uint _startingPrice) external returns (address) {\n    Auction auction = new Auction(msg.sender, _auctionLength, _startingPrice, enigmaAddress, enigmaCollectibleAddress);\n    auctions.push(auction);\n    emit newAuction(auction);\n  }\n\n  /*\n   * Get every auction address created.\n   */\n  function getAuctionAddresses() public view returns (address[]) {\n    return auctions;\n  }\n\n}\n",
  "sourcePath": "/Users/ah/Documents/portalNetwork/blockchain/enigma/enigma-template-dapp/contracts/AuctionFactory.sol",
  "compiler": {
    "name": "solc",
    "version": "0.4.24+commit.e67f0147.Emscripten.clang"
  },
  "schemaVersion": "2.0.0",
  "updatedAt": "2018-10-11T15:43:32.720Z"
}