{
  "contractName": "AuctionPricer",
  "abi": [
    {
      "constant": true,
      "inputs": [],
      "name": "expireTime",
      "outputs": [
        {
          "name": "",
          "type": "uint256"
        }
      ],
      "payable": false,
      "stateMutability": "view",
      "type": "function"
    },
    {
      "constant": true,
      "inputs": [],
      "name": "enigma",
      "outputs": [
        {
          "name": "",
          "type": "address"
        }
      ],
      "payable": false,
      "stateMutability": "view",
      "type": "function"
    },
    {
      "constant": true,
      "inputs": [],
      "name": "startingPrice",
      "outputs": [
        {
          "name": "",
          "type": "uint256"
        }
      ],
      "payable": false,
      "stateMutability": "view",
      "type": "function"
    },
    {
      "constant": true,
      "inputs": [
        {
          "name": "",
          "type": "address"
        }
      ],
      "name": "pricers",
      "outputs": [
        {
          "name": "hasPriced",
          "type": "bool"
        },
        {
          "name": "price",
          "type": "bytes"
        }
      ],
      "payable": false,
      "stateMutability": "view",
      "type": "function"
    },
    {
      "inputs": [
        {
          "name": "_enigma",
          "type": "address"
        },
        {
          "name": "_length",
          "type": "uint256"
        }
      ],
      "payable": false,
      "stateMutability": "nonpayable",
      "type": "constructor"
    },
    {
      "constant": false,
      "inputs": [
        {
          "name": "_price",
          "type": "bytes"
        }
      ],
      "name": "sendPrice",
      "outputs": [],
      "payable": false,
      "stateMutability": "nonpayable",
      "type": "function"
    },
    {
      "constant": true,
      "inputs": [
        {
          "name": "_prices",
          "type": "uint256[]"
        }
      ],
      "name": "getAveragePrice",
      "outputs": [
        {
          "name": "",
          "type": "uint256"
        }
      ],
      "payable": false,
      "stateMutability": "pure",
      "type": "function"
    },
    {
      "constant": false,
      "inputs": [
        {
          "name": "_price",
          "type": "uint256"
        }
      ],
      "name": "updateStartingPrice",
      "outputs": [],
      "payable": false,
      "stateMutability": "nonpayable",
      "type": "function"
    },
    {
      "constant": false,
      "inputs": [
        {
          "name": "_user",
          "type": "address"
        }
      ],
      "name": "getPriceforUser",
      "outputs": [
        {
          "name": "",
          "type": "bytes"
        }
      ],
      "payable": false,
      "stateMutability": "nonpayable",
      "type": "function"
    }
  ],
  "bytecode": "0x608060405234801561001057600080fd5b50604051604080610666833981016040528051602090910151600160a060020a0382161580159061004a5750600354600160a060020a0316155b151561005557600080fd5b60038054600160a060020a031916600160a060020a03939093169290921790915542016001556105dc8061008a6000396000f30060806040526004361061008d5763ffffffff7c0100000000000000000000000000000000000000000000000000000000600035041663310a1ee38114610092578063448c4484146100b95780637bf493851461010e578063b24fd5c5146101a4578063d6fbf202146101d5578063db70448b146101ea578063f6d3dec21461020c578063ff0d54b414610224575b600080fd5b34801561009e57600080fd5b506100a76102c8565b60408051918252519081900360200190f35b3480156100c557600080fd5b50604080516020600480358082013583810280860185019096528085526100a7953695939460249493850192918291850190849080828437509497506102ce9650505050505050565b34801561011a57600080fd5b5061012f600160a060020a0360043516610316565b6040805160208082528351818301528351919283929083019185019080838360005b83811015610169578181015183820152602001610151565b50505050905090810190601f1680156101965780820380516001836020036101000a031916815260200191505b509250505060405180910390f35b3480156101b057600080fd5b506101b96103ec565b60408051600160a060020a039092168252519081900360200190f35b3480156101e157600080fd5b506100a76103fb565b3480156101f657600080fd5b5061020a6004803560248101910135610401565b005b34801561021857600080fd5b5061020a60043561044e565b34801561023057600080fd5b50610245600160a060020a036004351661046a565b604051808315151515815260200180602001828103825283818151815260200191508051906020019080838360005b8381101561028c578181015183820152602001610274565b50505050905090810190601f1680156102b95780820380516001836020036101000a031916815260200191505b50935050505060405180910390f35b60015481565b600080805b83518110156103015783818151811015156102ea57fe5b6020908102909101015191909101906001016102d3565b83518281151561030d57fe5b04949350505050565b600160a060020a03811660009081526020819052604090205460609060ff16151561034057600080fd5b600160a060020a03821660009081526020818152604091829020600190810180548451600293821615610100026000190190911692909204601f8101849004840283018401909452838252909290918301828280156103e05780601f106103b5576101008083540402835291602001916103e0565b820191906000526020600020905b8154815290600101906020018083116103c357829003601f168201915b50505050509050919050565b600354600160a060020a031681565b60025481565b600154421061040f57600080fd5b3360009081526020819052604090205460ff161561042c57600080fd5b336000908152602081905260409020610449906001018383610515565b505050565b600354600160a060020a0316331461046557600080fd5b600255565b600060208181529181526040908190208054600180830180548551600261010094831615949094026000190190911692909204601f810187900487028301870190955284825260ff909216949293909283018282801561050b5780601f106104e05761010080835404028352916020019161050b565b820191906000526020600020905b8154815290600101906020018083116104ee57829003601f168201915b5050505050905082565b828054600181600116156101000203166002900490600052602060002090601f016020900481019282601f106105565782800160ff19823516178555610583565b82800160010185558215610583579182015b82811115610583578235825591602001919060010190610568565b5061058f929150610593565b5090565b6105ad91905b8082111561058f5760008155600101610599565b905600a165627a7a723058206a92ae4a04079ec1ba2796525c2fe3ac7c1413cc41285704f06d124fa84d3a6a0029",
  "source": "// AuctionPricer.sol\n// Enigma, 2018\n// Finds the initial bid price of an NFT. \n// EXPERIMENTAL AND UNTESTED\n\npragma solidity ^0.4.24;\n\nimport \"./Enigma.sol\";\n\ncontract AuctionPricer {\n\n  struct Pricer {\n    bool hasPriced;\n    bytes price;\n  }\n\n  mapping(address => Pricer) public pricers;\n  uint public expireTime;\n  uint public startingPrice;\n  Enigma public enigma;\n\n  constructor(address _enigma, uint _length) public {\n    require(_enigma != 0 && address(enigma) == 0);\n    enigma = Enigma(_enigma);\n    expireTime = now + _length;\n  }\n\n  function sendPrice(bytes _price) external {\n    require(now < expireTime);\n    require(!pricers[msg.sender].hasPriced);\n    pricers[msg.sender].price = _price;\n  }\n\n  function getAveragePrice(uint[] _prices) public pure returns (uint) {\n    uint sum;\n    for (uint i = 0; i < _prices.length; i++) {\n      sum += _prices[i];\n    }\n    return sum/_prices.length;\n  }\n\n  function updateStartingPrice(uint _price) public onlyEnigma {\n    startingPrice = _price;\n  }\n\n  function getPriceforUser(address _user) public returns (bytes) {\n    require(pricers[_user].hasPriced);\n    return pricers[_user].price;\n  }\n\n  modifier onlyEnigma() {\n    require(msg.sender == address(enigma));\n    _;\n  }\n\n}\n",
  "sourcePath": "/Users/ah/Documents/portalNetwork/blockchain/enigma/enigma-template-dapp/contracts/AuctionPricer.sol",
  "compiler": {
    "name": "solc",
    "version": "0.4.24+commit.e67f0147.Emscripten.clang"
  },
  "schemaVersion": "2.0.0",
  "updatedAt": "2018-10-09T09:56:37.358Z"
}