{
  "contractName": "Enigma",
  "abi": [
    {
      "constant": true,
      "inputs": [
        {
          "name": "",
          "type": "uint256"
        }
      ],
      "name": "workerAddresses",
      "outputs": [
        {
          "name": "",
          "type": "address"
        }
      ],
      "payable": false,
      "stateMutability": "view",
      "type": "function"
    },
    {
      "constant": true,
      "inputs": [
        {
          "name": "",
          "type": "address"
        }
      ],
      "name": "workers",
      "outputs": [
        {
          "name": "signer",
          "type": "address"
        },
        {
          "name": "status",
          "type": "uint8"
        },
        {
          "name": "report",
          "type": "bytes"
        },
        {
          "name": "balance",
          "type": "uint256"
        }
      ],
      "payable": false,
      "stateMutability": "view",
      "type": "function"
    },
    {
      "constant": true,
      "inputs": [],
      "name": "engToken",
      "outputs": [
        {
          "name": "",
          "type": "address"
        }
      ],
      "payable": false,
      "stateMutability": "view",
      "type": "function"
    },
    {
      "constant": true,
      "inputs": [
        {
          "name": "",
          "type": "bytes32"
        }
      ],
      "name": "tasks",
      "outputs": [
        {
          "name": "dappContract",
          "type": "address"
        },
        {
          "name": "status",
          "type": "uint8"
        },
        {
          "name": "callable",
          "type": "string"
        },
        {
          "name": "callableArgs",
          "type": "bytes"
        },
        {
          "name": "callback",
          "type": "string"
        },
        {
          "name": "worker",
          "type": "address"
        },
        {
          "name": "sig",
          "type": "bytes"
        },
        {
          "name": "reward",
          "type": "uint256"
        },
        {
          "name": "blockNumber",
          "type": "uint256"
        }
      ],
      "payable": false,
      "stateMutability": "view",
      "type": "function"
    },
    {
      "inputs": [
        {
          "name": "_tokenAddress",
          "type": "address"
        },
        {
          "name": "_principal",
          "type": "address"
        }
      ],
      "payable": false,
      "stateMutability": "nonpayable",
      "type": "constructor"
    },
    {
      "anonymous": false,
      "inputs": [
        {
          "indexed": false,
          "name": "custodian",
          "type": "address"
        },
        {
          "indexed": false,
          "name": "signer",
          "type": "address"
        },
        {
          "indexed": false,
          "name": "_success",
          "type": "bool"
        }
      ],
      "name": "Register",
      "type": "event"
    },
    {
      "anonymous": false,
      "inputs": [
        {
          "indexed": false,
          "name": "sig",
          "type": "bytes"
        },
        {
          "indexed": false,
          "name": "hash",
          "type": "bytes32"
        },
        {
          "indexed": false,
          "name": "workerAddr",
          "type": "address"
        },
        {
          "indexed": false,
          "name": "_success",
          "type": "bool"
        }
      ],
      "name": "ValidatedSig",
      "type": "event"
    },
    {
      "anonymous": false,
      "inputs": [
        {
          "indexed": false,
          "name": "dappContract",
          "type": "address"
        },
        {
          "indexed": false,
          "name": "worker",
          "type": "address"
        },
        {
          "indexed": false,
          "name": "sig",
          "type": "bytes"
        },
        {
          "indexed": false,
          "name": "reward",
          "type": "uint256"
        },
        {
          "indexed": false,
          "name": "_success",
          "type": "bool"
        }
      ],
      "name": "CommitResults",
      "type": "event"
    },
    {
      "anonymous": false,
      "inputs": [
        {
          "indexed": false,
          "name": "seed",
          "type": "uint256"
        },
        {
          "indexed": false,
          "name": "workers",
          "type": "address[]"
        },
        {
          "indexed": false,
          "name": "_success",
          "type": "bool"
        }
      ],
      "name": "WorkersParameterized",
      "type": "event"
    },
    {
      "anonymous": false,
      "inputs": [
        {
          "indexed": true,
          "name": "dappContract",
          "type": "address"
        },
        {
          "indexed": true,
          "name": "taskId",
          "type": "bytes32"
        },
        {
          "indexed": false,
          "name": "callable",
          "type": "string"
        },
        {
          "indexed": false,
          "name": "callableArgs",
          "type": "bytes"
        },
        {
          "indexed": false,
          "name": "callback",
          "type": "string"
        },
        {
          "indexed": false,
          "name": "fee",
          "type": "uint256"
        },
        {
          "indexed": false,
          "name": "preprocessors",
          "type": "bytes32[]"
        },
        {
          "indexed": false,
          "name": "blockNumber",
          "type": "uint256"
        },
        {
          "indexed": false,
          "name": "_success",
          "type": "bool"
        }
      ],
      "name": "ComputeTask",
      "type": "event"
    },
    {
      "constant": false,
      "inputs": [
        {
          "name": "signer",
          "type": "address"
        },
        {
          "name": "report",
          "type": "bytes"
        }
      ],
      "name": "register",
      "outputs": [
        {
          "name": "",
          "type": "uint8"
        }
      ],
      "payable": true,
      "stateMutability": "payable",
      "type": "function"
    },
    {
      "constant": true,
      "inputs": [
        {
          "name": "dappContract",
          "type": "address"
        },
        {
          "name": "callable",
          "type": "string"
        },
        {
          "name": "callableArgs",
          "type": "bytes"
        },
        {
          "name": "blockNumber",
          "type": "uint256"
        }
      ],
      "name": "generateTaskId",
      "outputs": [
        {
          "name": "",
          "type": "bytes32"
        }
      ],
      "payable": false,
      "stateMutability": "pure",
      "type": "function"
    },
    {
      "constant": false,
      "inputs": [
        {
          "name": "dappContract",
          "type": "address"
        },
        {
          "name": "callable",
          "type": "string"
        },
        {
          "name": "callableArgs",
          "type": "bytes"
        },
        {
          "name": "callback",
          "type": "string"
        },
        {
          "name": "fee",
          "type": "uint256"
        },
        {
          "name": "preprocessors",
          "type": "bytes32[]"
        },
        {
          "name": "blockNumber",
          "type": "uint256"
        }
      ],
      "name": "compute",
      "outputs": [
        {
          "name": "",
          "type": "uint8"
        }
      ],
      "payable": false,
      "stateMutability": "nonpayable",
      "type": "function"
    },
    {
      "constant": false,
      "inputs": [
        {
          "name": "taskId",
          "type": "bytes32"
        },
        {
          "name": "data",
          "type": "bytes"
        },
        {
          "name": "sig",
          "type": "bytes"
        },
        {
          "name": "blockNumber",
          "type": "uint256"
        }
      ],
      "name": "commitResults",
      "outputs": [
        {
          "name": "",
          "type": "uint8"
        }
      ],
      "payable": false,
      "stateMutability": "nonpayable",
      "type": "function"
    },
    {
      "constant": false,
      "inputs": [
        {
          "name": "seed",
          "type": "uint256"
        },
        {
          "name": "sig",
          "type": "bytes"
        }
      ],
      "name": "setWorkersParams",
      "outputs": [
        {
          "name": "",
          "type": "uint8"
        }
      ],
      "payable": false,
      "stateMutability": "nonpayable",
      "type": "function"
    },
    {
      "constant": true,
      "inputs": [
        {
          "name": "blockNumber",
          "type": "uint256"
        }
      ],
      "name": "getWorkersParams",
      "outputs": [
        {
          "name": "",
          "type": "uint256"
        },
        {
          "name": "",
          "type": "uint256"
        },
        {
          "name": "",
          "type": "address[]"
        }
      ],
      "payable": false,
      "stateMutability": "view",
      "type": "function"
    },
    {
      "constant": true,
      "inputs": [
        {
          "name": "blockNumber",
          "type": "uint256"
        },
        {
          "name": "taskId",
          "type": "bytes32"
        }
      ],
      "name": "selectWorker",
      "outputs": [
        {
          "name": "",
          "type": "address"
        }
      ],
      "payable": false,
      "stateMutability": "view",
      "type": "function"
    },
    {
      "constant": true,
      "inputs": [
        {
          "name": "custodian",
          "type": "address"
        }
      ],
      "name": "getReport",
      "outputs": [
        {
          "name": "",
          "type": "address"
        },
        {
          "name": "",
          "type": "bytes"
        }
      ],
      "payable": false,
      "stateMutability": "view",
      "type": "function"
    }
  ],
  "bytecode": "0x608060405234801561001057600080fd5b50604051604080612c8283398101604052805160209091015160008054600160a060020a03938416600160a060020a03199182161790915560018054939092169216919091179055612c1b806100676000396000f3006080604052600436106100b95763ffffffff7c01000000000000000000000000000000000000000000000000000000006000350416630a318da081146100be57806324b8fbf6146100f25780632873e73c146101705780634048a257146101ce57806341f53fa41461029457806348aa8573146102af57806359c91a12146103685780639489ad40146103e2578063a3bdae3e146103f7578063a944c0cd146104a9578063bf3c5c5114610547578063e579f5001461066c575b600080fd5b3480156100ca57600080fd5b506100d660043561087a565b60408051600160a060020a039092168252519081900360200190f35b60408051602060046024803582810135601f810185900485028601850190965285855261014c958335600160a060020a03169536956044949193909101919081908401838280828437509497506108a29650505050505050565b6040518082600181111561015c57fe5b60ff16815260200191505060405180910390f35b34801561017c57600080fd5b5060408051602060046024803582810135601f810185900485028601850190965285855261014c9583359536956044949193909101919081908401838280828437509497506109ee9650505050505050565b3480156101da57600080fd5b506101ef600160a060020a0360043516610e61565b6040518085600160a060020a0316600160a060020a031681526020018460ff1660ff16815260200180602001838152602001828103825284818151815260200191508051906020019080838360005b8381101561025657818101518382015260200161023e565b50505050905090810190601f1680156102835780820380516001836020036101000a031916815260200191505b509550505050505060405180910390f35b3480156102a057600080fd5b506100d6600435602435610f25565b3480156102bb57600080fd5b5060408051602060046024803582810135601f8101859004850286018501909652858552610356958335600160a060020a031695369560449491939091019190819084018382808284375050604080516020601f89358b018035918201839004830284018301909452808352979a99988101979196509182019450925082915084018382808284375094975050933594506110039350505050565b60408051918252519081900360200190f35b34801561037457600080fd5b50610380600435611143565b6040518084815260200183815260200180602001828103825283818151815260200191508051906020019060200280838360005b838110156103cc5781810151838201526020016103b4565b5050505090500194505050505060405180910390f35b3480156103ee57600080fd5b506100d66112a5565b34801561040357600080fd5b50610418600160a060020a03600435166112b4565b6040518083600160a060020a0316600160a060020a0316815260200180602001828103825283818151815260200191508051906020019080838360005b8381101561046d578181015183820152602001610455565b50505050905090810190601f16801561049a5780820380516001836020036101000a031916815260200191505b50935050505060405180910390f35b3480156104b557600080fd5b5060408051602060046024803582810135601f810185900485028601850190965285855261014c95833595369560449491939091019190819084018382808284375050604080516020601f89358b018035918201839004830284018301909452808352979a999881019791965091820194509250829150840183828082843750949750509335945061152f9350505050565b34801561055357600080fd5b5060408051602060046024803582810135601f810185900485028601850190965285855261014c958335600160a060020a031695369560449491939091019190819084018382808284375050604080516020601f89358b018035918201839004830284018301909452808352979a99988101979196509182019450925082915084018382808284375050604080516020601f89358b018035918201839004830284018301909452808352979a99988101979196509182019450925082915084018382808284375050604080516020808901358a01803580830284810184018652818552999c8b359c909b909a9501985092965081019450909250829190850190849080828437509497505093359450611dcd9350505050565b34801561067857600080fd5b50610684600435612208565b604051600160a060020a038a168152602081018960018111156106a357fe5b60ff16815260200180602001806020018060200188600160a060020a0316600160a060020a031681526020018060200187815260200186815260200185810385528c818151815260200191508051906020019080838360005b838110156107145781810151838201526020016106fc565b50505050905090810190601f1680156107415780820380516001836020036101000a031916815260200191505b5085810384528b5181528b516020918201918d019080838360005b8381101561077457818101518382015260200161075c565b50505050905090810190601f1680156107a15780820380516001836020036101000a031916815260200191505b5085810383528a5181528a516020918201918c019080838360005b838110156107d45781810151838201526020016107bc565b50505050905090810190601f1680156108015780820380516001836020036101000a031916815260200191505b5085810382528851815288516020918201918a019080838360005b8381101561083457818101518382015260200161081c565b50505050905090810190601f1680156108615780820380516001836020036101000a031916815260200191505b509d505050505050505050505050505060405180910390f35b601180548290811061088857fe5b600091825260209091200154600160a060020a0316905081565b336000908152601260205260408120548190600160a060020a031615156109185750601180549081906108d89060018301612ad4565b50336011828154811015156108e957fe5b9060005260206000200160006101000a815481600160a060020a030219169083600160a060020a031602179055505b336000908152601260209081526040909120805473ffffffffffffffffffffffffffffffffffffffff1916600160a060020a038716178155346002820155845161096a92600190920191860190612afd565b5033600081815260126020908152604091829020805474ff0000000000000000000000000000000000000000191660a060020a1790558151928352600160a060020a03871690830152600182820152517faea7118a676707165821e4678d9998eaabd7a2864b5db99ec0badef3fb7fa1e49181900360600190a15060009392505050565b6000806000806000336109ff612b7b565b600160a060020a0382811660009081526012602090815260409182902082516080810184528154948516815260a060020a90940460ff1684830152600180820180548551600261010094831615949094026000190190911692909204601f81018590048502830185018652808352929486019391929091830182828015610ac75780601f10610a9c57610100808354040283529160200191610ac7565b820191906000526020600020905b815481529060010190602001808311610aaa57829003601f168201915b5050505050815260200160028201548152505090506000816020015160ff16111515610b3d576040805160e560020a62461bcd02815260206004820152601460248201527f556e7265676973746572656420776f726b65722e000000000000000000000000604482015290519081900360640190fd5b60015433600090815260126020526040902054600160a060020a03908116911614610bd8576040805160e560020a62461bcd02815260206004820152602660248201527f4f6e6c7920746865205072696e636970616c2063616e2075706461746520746860448201527f6520736565640000000000000000000000000000000000000000000000000000606482015290519081900360840190fd5b610be28989612495565b600154909650600160a060020a03808816911614610c4a576040805160e560020a62461bcd02815260206004820152601160248201527f496e76616c6964207369676e6174757265000000000000000000000000000000604482015290519081900360640190fd5b60009450600093505b6005841015610cb55760028460058110610c6957fe5b60030201541515610c7c57839450610cb5565b60028560058110610c8957fe5b600302015460028560058110610c9b57fe5b60030201541015610caa578394505b600190930192610c53565b4360028660058110610cc357fe5b60030201558860028660058110610cd657fe5b6003020160020181905550600092505b601154831015610dbd576011805484908110610cfe57fe5b600091825260209091200154600160a060020a031615610db25760028560058110610d2557fe5b600302016001018054809190600101610d3e9190612ad4565b506011805484908110610d4d57fe5b600091825260209091200154600160a060020a031660028660058110610d6f57fe5b6003020160010184815481101515610d8357fe5b9060005260206000200160006101000a815481600160a060020a030219169083600160a060020a031602179055505b600190920191610ce6565b7f363e1a0b29df899b2a8946ad6ac8f81796117158a11dc2c2a5b8c0297789ffa189601160016040518084815260200180602001831515151581526020018281038252848181548152602001915080548015610e4257602002820191906000526020600020905b8154600160a060020a03168152600190910190602001808311610e24575b505094505050505060405180910390a150600098975050505050505050565b6012602090815260009182526040918290208054600180830180548651600261010094831615949094026000190190911692909204601f8101869004860283018601909652858252600160a060020a0383169560a060020a90930460ff169491929091830182828015610f155780601f10610eea57610100808354040283529160200191610f15565b820191906000526020600020905b815481529060010190602001808311610ef857829003601f168201915b5050505050908060020154905084565b6000806000606080600080610f3989611143565b955095509550610f488461252d565b6040805160208082018990528183018c90528251808303840181526060909201928390528151939650909282918401908083835b60208310610f9b5780518252601f199092019160209182019101610f7c565b6001836020036101000a0380198251168184511680821785525050505050509050019150506040518091039020915082518260019004811515610fda57fe5b0690508281815181101515610feb57fe5b90602001906020020151965050505050505092915050565b600080858585856040516020018085600160a060020a0316600160a060020a03166c0100000000000000000000000002815260140184805190602001908083835b602083106110635780518252601f199092019160209182019101611044565b51815160209384036101000a600019018019909216911617905286519190930192860191508083835b602083106110ab5780518252601f19909201916020918201910161108c565b51815160209384036101000a6000190180199092169116179052920193845250604080518085038152938201908190528351939650945084935085019190508083835b6020831061110d5780518252601f1990920191602091820191016110ee565b5181516020939093036101000a600019018019909116921691909117905260405192018290039091209998505050505050505050565b6000806060600080611153612bb0565b606061115e886126e3565b9350600019600085900b14156111e4576040805160e560020a62461bcd02815260206004820152603660248201527f4e6f20776f726b65727320706172616d657465727320656e74727920666f722060448201527f73706563696669656420626c6f636b206e756d62657200000000000000000000606482015290519081900360840190fd5b600084900b9250600283600581106111f857fe5b6003020160606040519081016040529081600082015481526020016001820180548060200260200160405190810160405280929190818152602001828054801561126b57602002820191906000526020600020905b8154600160a060020a0316815260019091019060200180831161124d575b50505050508152602001600282015481525050915061128d826020015161252d565b82516040909301519299929850965090945050505050565b600054600160a060020a031681565b60006060826112c1612b7b565b600160a060020a0382811660009081526012602090815260409182902082516080810184528154948516815260a060020a90940460ff1684830152600180820180548551600261010094831615949094026000190190911692909204601f810185900485028301850186528083529294860193919290918301828280156113895780601f1061135e57610100808354040283529160200191611389565b820191906000526020600020905b81548152906001019060200180831161136c57829003601f168201915b5050505050815260200160028201548152505090506000816020015160ff161115156113ff576040805160e560020a62461bcd02815260206004820152601460248201527f556e7265676973746572656420776f726b65722e000000000000000000000000604482015290519081900360640190fd5b600160a060020a03808616600090815260126020526040902054161515611470576040805160e560020a62461bcd02815260206004820152601560248201527f576f726b6572206e6f7420726567697374657265640000000000000000000000604482015290519081900360640190fd5b600160a060020a038581166000908152601260209081526040918290208054600191820180548551600261010095831615959095026000190190911693909304601f810185900485028401850190955284835294169392909183919083018282801561151d5780601f106114f25761010080835404028352916020019161151d565b820191906000526020600020905b81548152906001019060200180831161150057829003601f168201915b50505050509050935093505050915091565b6000806000803361153e612b7b565b600160a060020a0382811660009081526012602090815260409182902082516080810184528154948516815260a060020a90940460ff1684830152600180820180548551600261010094831615949094026000190190911692909204601f810185900485028301850186528083529294860193919290918301828280156116065780601f106115db57610100808354040283529160200191611606565b820191906000526020600020905b8154815290600101906020018083116115e957829003601f168201915b5050505050815260200160028201548152505090506000816020015160ff1611151561167c576040805160e560020a62461bcd02815260206004820152601460248201527f556e7265676973746572656420776f726b65722e000000000000000000000000604482015290519081900360640190fd5b6000808b81526013602052604090205460a060020a900460ff1660018111156116a157fe5b1461171c576040805160e560020a62461bcd02815260206004820152602960248201527f496c6c6567616c207374617475732c207461736b206d75737420626520696e2060448201527f70726f67726573732e0000000000000000000000000000000000000000000000606482015290519081900360840190fd5b438710611773576040805160e560020a62461bcd02815260206004820152601b60248201527f426c6f636b206e756d62657220696e20746865206675747572652e0000000000604482015290519081900360640190fd5b60008a815260136020908152604091829020825161012081019093528054600160a060020a0381168452611a53939283019060a060020a900460ff1660018111156117ba57fe5b60018111156117c557fe5b8152602001600182018054600181600116156101000203166002900480601f0160208091040260200160405190810160405280929190818152602001828054600181600116156101000203166002900480156118625780601f1061183757610100808354040283529160200191611862565b820191906000526020600020905b81548152906001019060200180831161184557829003601f168201915b5050509183525050600282810180546040805160206001841615610100026000190190931694909404601f810183900483028501830190915280845293810193908301828280156118f45780601f106118c9576101008083540402835291602001916118f4565b820191906000526020600020905b8154815290600101906020018083116118d757829003601f168201915b505050918352505060038201805460408051602060026001851615610100026000190190941693909304601f81018490048402820184019092528181529382019392918301828280156119885780601f1061195d57610100808354040283529160200191611988565b820191906000526020600020905b81548152906001019060200180831161196b57829003601f168201915b50505091835250506004820154600160a060020a031660208083019190915260058301805460408051601f60026000196001861615610100020190941693909304928301859004850281018501825282815294019392830182828015611a2f5780601f10611a0457610100808354040283529160200191611a2f565b820191906000526020600020905b815481529060010190602001808311611a1257829003601f168201915b50505050508152602001600682015481526020016007820154815250508a8a61275f565b9450600160a060020a0385161515611ab5576040805160e560020a62461bcd02815260206004820152601d60248201527f43616e6e6f74207665726966792074686973207369676e61747572652e000000604482015290519081900360640190fd5b33600090815260126020526040902054600160a060020a03868116911614611b27576040805160e560020a62461bcd02815260206004820152601260248201527f496e76616c6964207369676e61747572652e0000000000000000000000000000604482015290519081900360640190fd5b60008a81526013602052604081206006015494508411611b91576040805160e560020a62461bcd02815260206004820152601660248201527f5265776172642063616e6e6f74206265207a65726f2e00000000000000000000604482015290519081900360640190fd5b60008a815260136020526040812054611bb691600160a060020a03909116908b6129ae565b1515611c0c576040805160e560020a62461bcd02815260206004820152601d60248201527f556e61626c6520746f20696e766f6b65207468652063616c6c6261636b000000604482015290519081900360640190fd5b60008a815260136020908152604090912060048101805473ffffffffffffffffffffffffffffffffffffffff1916331790558951611c52926005909201918b0190612afd565b5060008a8152601360209081526040808320805474ff0000000000000000000000000000000000000000191660a060020a179055338352601290915290206002810154909350611ca290856129c5565b83600201819055507f860ef3e30d5efeaa79f3d448bd5219e9b92ca92eefb7bcc4e8c6b3420fe9dd3d601360008c6000191660001916815260200190815260200160002060000160009054906101000a9004600160a060020a0316868a8760016040518086600160a060020a0316600160a060020a0316815260200185600160a060020a0316600160a060020a031681526020018060200184815260200183151515158152602001828103825285818151815260200191508051906020019080838360005b83811015611d7f578181015183820152602001611d67565b50505050905090810190601f168015611dac5780820380516001836020036101000a031916815260200191505b50965050505050505060405180910390a15060009998505050505050505050565b600080611ddc89898986611003565b600081815260136020526040902054909150600160a060020a031615611e72576040805160e560020a62461bcd02815260206004820152602760248201527f5461736b2077697468207468652073616d65207461736b496420616c7265616460448201527f7920657869737400000000000000000000000000000000000000000000000000606482015290519081900360840190fd5b6000818152601360209081526040909120600681018790558951611e9e926001909201918b0190612afd565b5060008181526013602090815260409091208851611ec4926002909201918a0190612afd565b5060008181526013602090815260409091208751611eea92600390920191890190612afd565b506000818152601360205260408120805474ff0000000000000000000000000000000000000000191660a060020a8302179055508860136000836000191660001916815260200190815260200160002060000160006101000a815481600160a060020a030219169083600160a060020a031602179055508260136000836000191660001916815260200190815260200160002060070181905550806000191689600160a060020a03167f4ff070954b5d945704da2dfe97df43d753324f63c307db579707f91239df423e8a8a8a8a8a8a600160405180806020018060200180602001888152602001806020018781526020018615151515815260200185810385528c818151815260200191508051906020019080838360005b8381101561201b578181015183820152602001612003565b50505050905090810190601f1680156120485780820380516001836020036101000a031916815260200191505b5085810384528b5181528b516020918201918d019080838360005b8381101561207b578181015183820152602001612063565b50505050905090810190601f1680156120a85780820380516001836020036101000a031916815260200191505b5085810383528a5181528a516020918201918c019080838360005b838110156120db5781810151838201526020016120c3565b50505050905090810190601f1680156121085780820380516001836020036101000a031916815260200191505b508581038252885181528851602091820191808b01910280838360005b8381101561213d578181015183820152602001612125565b505050509050019b50505050505050505050505060405180910390a360008054604080517f23b872dd000000000000000000000000000000000000000000000000000000008152336004820152306024820152604481018990529051600160a060020a03909216926323b872dd926064808401936020939083900390910190829087803b1580156121cd57600080fd5b505af11580156121e1573d6000803e3d6000fd5b505050506040513d60208110156121f757600080fd5b5060009a9950505050505050505050565b6013602090815260009182526040918290208054600180830180548651600261010094831615949094026000190190911692909204601f8101869004860283018601909652858252600160a060020a0383169560a060020a90930460ff1694919290918301828280156122bc5780601f10612291576101008083540402835291602001916122bc565b820191906000526020600020905b81548152906001019060200180831161229f57829003601f168201915b50505060028085018054604080516020601f600019610100600187161502019094169590950492830185900485028101850190915281815295969594509092509083018282801561234e5780601f106123235761010080835404028352916020019161234e565b820191906000526020600020905b81548152906001019060200180831161233157829003601f168201915b5050505060038301805460408051602060026001851615610100026000190190941693909304601f81018490048402820184019092528181529495949350908301828280156123de5780601f106123b3576101008083540402835291602001916123de565b820191906000526020600020905b8154815290600101906020018083116123c157829003601f168201915b50505050600483015460058401805460408051602060026101006001861615026000190190941693909304601f81018490048402820184019092528181529596600160a060020a03909416959394509083018282801561247f5780601f106124545761010080835404028352916020019161247f565b820191906000526020600020905b81548152906001019060200180831161246257829003601f168201915b5050505050908060060154908060070154905089565b600080600084604051602001808281526020019150506040516020818303038152906040526040518082805190602001908083835b602083106124e95780518252601f1990920191602091820191016124ca565b5181516020939093036101000a60001901801990911692169190911790526040519201829003909120945061252492508491508690506129d8565b95945050505050565b60606000808281805b86518410156125cf57868481518110151561254d57fe5b90602001906020020151600160a060020a03166000141580156125b857506001548751600160a060020a03909116906012906000908a908890811061258e57fe5b6020908102909101810151600160a060020a03908116835290820192909252604001600020541614155b156125c4576001909401935b600190930192612536565b846040519080825280602002602001820160405280156125f9578160200160208202803883390190505b50925060009150600090505b86518110156126d857868181518110151561261c57fe5b90602001906020020151600160a060020a031660001415801561268757506001548751600160a060020a03909116906012906000908a908590811061265d57fe5b6020908102909101810151600160a060020a03908116835290820192909252604001600020541614155b156126d057868181518110151561269a57fe5b9060200190602002015183838151811015156126b257fe5b600160a060020a039092166020928302909101909101526001909101905b600101612605565b509095945050505050565b6000600019815b600581101561275857836002826005811061270157fe5b60030201541180159061274757508160000b600019148061274757506002600083900b6005811061272e57fe5b60030201546002826005811061274057fe5b6003020154115b15612750578091505b6001016126ea565b5092915050565b600060606000806127738760000151612aad565b9250866060015186846040516020018084805190602001908083835b602083106127ae5780518252601f19909201916020918201910161278f565b51815160209384036101000a600019018019909216911617905286519190930192860191508083835b602083106127f65780518252601f1990920191602091820191016127d7565b51815160209384036101000a600019018019909216911617905285519190930192850191508083835b6020831061283e5780518252601f19909201916020918201910161281f565b6001836020036101000a03801982511681845116808217855250505050505090500193505050506040516020818303038152906040526040518082805190602001908083835b602083106128a35780518252601f199092019160209182019101612884565b5181516020939093036101000a6000190180199091169216919091179052604051920182900390912094506128de92508491508790506129d8565b604080516020808201869052600160a060020a03841692820192909252600160608201819052608080835289519083015288519394507f913b45a87c27987ce16da183c1bd3aad46b7ca00f990d083d4bc7726783a5b7893899387938793929091829160a083019188019080838360005b8381101561296757818101518382015260200161294f565b50505050905090810190601f1680156129945780820380516001836020036101000a031916815260200191505b509550505050505060405180910390a19695505050505050565b600080600083516020850186885af1949350505050565b818101828110156129d257fe5b92915050565b600080600080845160411415156129f25760009350612aa4565b50505060208201516040830151606084015160001a601b60ff82161015612a1757601b015b8060ff16601b14158015612a2f57508060ff16601c14155b15612a3d5760009350612aa4565b60408051600080825260208083018085528a905260ff8516838501526060830187905260808301869052925160019360a0808501949193601f19840193928390039091019190865af1158015612a97573d6000803e3d6000fd5b5050506020604051035193505b50505092915050565b60408051603f833b908101601f191682019092528181529080600060208401853c50919050565b815481835581811115612af857600083815260209020612af8918101908301612bd2565b505050565b828054600181600116156101000203166002900490600052602060002090601f016020900481019282601f10612b3e57805160ff1916838001178555612b6b565b82800160010185558215612b6b579182015b82811115612b6b578251825591602001919060010190612b50565b50612b77929150612bd2565b5090565b6080604051908101604052806000600160a060020a03168152602001600060ff16815260200160608152602001600081525090565b6060604051908101604052806000815260200160608152602001600081525090565b612bec91905b80821115612b775760008155600101612bd8565b905600a165627a7a72305820eff23ea1da09c8357f075a7726ab9ddc5851feddff88451d352452f5bd96d4610029",
  "source": "pragma solidity ^0.4.24;\n\nimport \"openzeppelin-solidity/contracts/math/SafeMath.sol\";\nimport \"openzeppelin-solidity/contracts/ECRecovery.sol\";\nimport \"./utils/GetCode2.sol\";\nimport \"openzeppelin-solidity/contracts/token/ERC20/StandardToken.sol\";\n\ncontract IERC20 {\n    function balanceOf(address who) public view returns (uint256);\n    function transfer(address to, uint256 value) public returns (bool);\n    function allowance(address owner, address spender) public view returns (uint256);\n    function transferFrom(address from, address to, uint256 value) public returns (bool);\n    function approve(address spender, uint256 value) public returns (bool);\n\n    event Transfer(address indexed from, address indexed to, uint256 value);\n    event Approval(address indexed owner, address indexed spender, uint256 value);\n}\n\n\ncontract Enigma {\n    using SafeMath for uint256;\n    using ECRecovery for bytes32;\n\n    // The interface of the deployed ENG ERC20 token contract\n    IERC20 public engToken;\n\n    // The data representation of a computation task\n    struct Task {\n        address dappContract;\n        TaskStatus status;\n        string callable;\n        bytes callableArgs;\n        string callback;\n        address worker;\n        bytes sig;\n        uint256 reward;\n        uint256 blockNumber;\n    }\n    enum TaskStatus {InProgress, Executed}\n\n    enum ReturnValue {Ok, Error}\n\n    /**\n    * The signer address of the principal node\n    * This must be set when deploying the contract and remains immutable\n    * Since the signer address is derived from the public key of an\n    * SGX enclave, this ensures that the principal node cannot be tempered\n    * with or replaced.\n    */\n    address principal;\n\n    // The data representation of a worker (or node)\n    struct Worker {\n        address signer;\n        uint8 status; // Uninitialized: 0; Active: 1; Inactive: 2\n        bytes report; // Decided to store this as one  RLP encoded attribute for easier external storage in the future\n        uint256 balance;\n    }\n\n    /**\n    * The data representation of the worker parameters used as input for\n    * the worker selection algorithm\n    */\n    struct WorkersParams {\n        uint256 firstBlockNumber;\n        address[] workerAddresses;\n        uint256 seed;\n    }\n\n    /**\n    * The last 5 worker parameters\n    * We keep a collection of worker parameters to account for latency issues.\n    * A computation task might be conceivably given out at a certain block number\n    * but executed at a later block in a different epoch. It follows that\n    * the contract must have access to the worker parameters effective when giving\n    * out the task, otherwise the selected worker would not match. We calculated\n    * that keeping the last 5 items should be more than enough to account for\n    * all latent tasks. Tasks results will be rejected past this limit.\n    */\n    WorkersParams[5] workersParams;\n\n    // An address-based index of all registered worker\n    address[] public workerAddresses;\n\n    // A registry of all registered workers with their attributes\n    mapping(address => Worker) public workers;\n    // A registry of all active and historical tasks with their attributes\n    // TODO: do we keep tasks forever? if not, when do we delete them?\n    mapping(bytes32 => Task) public tasks;\n\n    // The events emitted by the contract\n    event Register(address custodian, address signer, bool _success);\n    event ValidatedSig(bytes sig, bytes32 hash, address workerAddr, bool _success);\n    event CommitResults(address dappContract, address worker, bytes sig, uint reward, bool _success);\n    event WorkersParameterized(uint256 seed, address[] workers, bool _success);\n    event ComputeTask(\n        address indexed dappContract,\n        bytes32 indexed taskId,\n        string callable,\n        bytes callableArgs,\n        string callback,\n        uint256 fee,\n        bytes32[] preprocessors,\n        uint256 blockNumber,\n        bool _success\n    );\n\n    constructor(address _tokenAddress, address _principal) public {\n        engToken = IERC20(_tokenAddress);\n        principal = _principal;\n    }\n\n    /**\n    * Checks if the custodian wallet is registered as a worker\n    *\n    * @param user The custodian address of the worker\n    */\n    modifier workerRegistered(address user) {\n        Worker memory worker = workers[user];\n        require(worker.status > 0, \"Unregistered worker.\");\n        _;\n    }\n\n    /**\n    * Registers a new worker of change the signer parameters of an existing\n    * worker. This should be called by every worker (and the principal)\n    * node in order to receive tasks.\n    *\n    * @param signer The signer address, derived from the enclave public key\n    * @param report The RLP encoded report returned by the IAS\n    */\n    function register(address signer, bytes report)\n        public\n        payable\n        returns (ReturnValue)\n    {\n        // TODO: consider exit if both signer and custodian as matching\n        // If the custodian is not already register, we add an index entry\n        if (workers[msg.sender].signer == 0x0) {\n            uint index = workerAddresses.length;\n            workerAddresses.length++;\n            workerAddresses[index] = msg.sender;\n        }\n\n        // Set the custodian attributes\n        workers[msg.sender].signer = signer;\n        workers[msg.sender].balance = msg.value;\n        workers[msg.sender].report = report;\n        workers[msg.sender].status = 1;\n\n        emit Register(msg.sender, signer, true);\n\n        return ReturnValue.Ok;\n    }\n\n    /**\n    * Generates a unique task id\n    *\n    * @param dappContract The address of the deployed contract containing the callable method\n    * @param callable The signature (as defined by the Ethereum ABI) of the function to compute\n    * @param callableArgs The RLP serialized arguments of the callable function\n    * @param blockNumber The current block number\n    * @return The task id\n    */\n    function generateTaskId(address dappContract, string callable, bytes callableArgs, uint256 blockNumber)\n        public\n        pure\n        returns (bytes32)\n    {\n        bytes32 hash = keccak256(abi.encodePacked(dappContract, callable, callableArgs, blockNumber));\n        return hash;\n    }\n\n    /**\n    * Give out a computation task to the network\n    *\n    * @param dappContract The address of the deployed contract containing the callable method\n    * @param callable The signature (as defined by the Ethereum ABI) of the function to compute\n    * @param callableArgs The RLP serialized arguments of the callable function\n    * @param callback The signature of the function to call back with the results\n    * @param fee The computation fee in ENG\n    * @param preprocessors A list of preprocessors to run and inject as argument of callable\n    * @param blockNumber The current block number\n    */\n    function compute(\n        address dappContract,\n        string callable,\n        bytes callableArgs,\n        string callback,\n        uint256 fee,\n        bytes32[] preprocessors,\n        uint256 blockNumber\n    )\n        public\n        returns (ReturnValue)\n    {\n        // TODO: Add a multiplier to the fee (like ETH => wei) in order to accept smaller denominations\n        bytes32 taskId = generateTaskId(dappContract, callable, callableArgs, blockNumber);\n        require(tasks[taskId].dappContract == 0x0, \"Task with the same taskId already exist\");\n\n        tasks[taskId].reward = fee;\n        tasks[taskId].callable = callable;\n        tasks[taskId].callableArgs = callableArgs;\n        tasks[taskId].callback = callback;\n        tasks[taskId].status = TaskStatus.InProgress;\n        tasks[taskId].dappContract = dappContract;\n        tasks[taskId].blockNumber = blockNumber;\n\n        // Emit the ComputeTask event which each node is watching for\n        emit ComputeTask(\n            dappContract,\n            taskId,\n            callable,\n            callableArgs,\n            callback,\n            fee,\n            preprocessors,\n            blockNumber,\n            true\n        );\n\n        // Transferring before emitting does not work\n        // TODO: check the allowance first\n        engToken.transferFrom(msg.sender, this, fee);\n\n        return ReturnValue.Ok;\n    }\n\n    // Verify the task results signature\n    function verifyCommitSig(Task task, bytes data, bytes sig)\n        internal\n        returns (address)\n    {\n        // Recreating a data hash to validate the signature\n        bytes memory code = GetCode2.at(task.dappContract);\n\n        // Build a hash to validate that the I/Os are matching\n        bytes32 hash = keccak256(abi.encodePacked(task.callableArgs, data, code));\n\n        // The worker address is not a real Ethereum wallet address but\n        // one generated from its signing key\n        address workerAddr = hash.recover(sig);\n\n        emit ValidatedSig(sig, hash, workerAddr, true);\n        return workerAddr;\n    }\n\n    // Execute the encoded function in the specified contract\n    function executeCall(address to, uint256 value, bytes data)\n        internal\n        returns (bool success)\n    {\n        assembly {\n            success := call(gas, to, value, add(data, 0x20), mload(data), 0, 0)\n        }\n    }\n\n    /**\n    * Commit the computation task results on chain\n    *\n    * @param taskId The reference task id\n    * @param data The encoded callback function call (which includes the computation results)\n    * @param sig The data signed by the the worker's enclave\n    * @param blockNumber The block number which originated the task\n    */\n    function commitResults(bytes32 taskId, bytes data, bytes sig, uint256 blockNumber)\n        public\n        workerRegistered(msg.sender)\n        returns (ReturnValue)\n    {\n        // Task must be solved only once\n        require(tasks[taskId].status == TaskStatus.InProgress, \"Illegal status, task must be in progress.\");\n        // TODO: run worker selection algo to validate right worker\n        require(block.number > blockNumber, \"Block number in the future.\");\n\n        address sigAddr = verifyCommitSig(tasks[taskId], data, sig);\n        require(sigAddr != address(0), \"Cannot verify this signature.\");\n        require(sigAddr == workers[msg.sender].signer, \"Invalid signature.\");\n\n        // The contract must hold enough fund to distribute reward\n        // TODO: validate that the reward matches the opcodes computed\n        uint256 reward = tasks[taskId].reward;\n        require(reward > 0, \"Reward cannot be zero.\");\n\n        // Invoking the callback method of the original contract\n        require(executeCall(tasks[taskId].dappContract, 0, data), \"Unable to invoke the callback\");\n\n        // Keep a trace of the task worker and proof\n        tasks[taskId].worker = msg.sender;\n        tasks[taskId].sig = sig;\n        tasks[taskId].status = TaskStatus.Executed;\n\n        // TODO: send directly to the worker's custodian instead\n        // Put the reward in the worker's bank\n        // He can withdraw later\n        Worker storage worker = workers[msg.sender];\n        worker.balance = worker.balance.add(reward);\n\n        emit CommitResults(tasks[taskId].dappContract, sigAddr, sig, reward, true);\n\n        return ReturnValue.Ok;\n    }\n\n    // Verify the signature submitted while reparameterizing workers\n    function verifyParamsSig(uint256 seed, bytes sig)\n        internal\n        pure\n        returns (address)\n    {\n        bytes32 hash = keccak256(abi.encodePacked(seed));\n        address signer = hash.recover(sig);\n        return signer;\n    }\n\n    /**\n    * Reparameterizing workers with a new seed\n    * This should be called for each epoch by the Principal node\n    *\n    * @param seed The random integer generated by the enclave\n    * @param sig The random integer signed by the the principal node's enclave\n    */\n    function setWorkersParams(uint256 seed, bytes sig)\n        public\n        workerRegistered(msg.sender)\n        returns (ReturnValue)\n    {\n        require(workers[msg.sender].signer == principal, \"Only the Principal can update the seed\");\n\n        address sigAddr = verifyParamsSig(seed, sig);\n        require(sigAddr == principal, \"Invalid signature\");\n\n        // Create a new workers parameters item for the specified seed.\n        // The workers parameters list is a sort of cache, it never grows beyond its limit.\n        // If the list is full, the new item will replace the item assigned to the lowest block number.\n        uint ti = 0;\n        for (uint pi = 0; pi < workersParams.length; pi++) {\n            // Find an empty slot in the array, if full use the lowest block number\n            if (workersParams[pi].firstBlockNumber == 0) {\n                ti = pi;\n                break;\n            } else if (workersParams[pi].firstBlockNumber < workersParams[ti].firstBlockNumber) {\n                ti = pi;\n            }\n        }\n        workersParams[ti].firstBlockNumber = block.number;\n        workersParams[ti].seed = seed;\n\n        // Copy the current worker list\n        for (uint wi = 0; wi < workerAddresses.length; wi++) {\n            if (workerAddresses[wi] != 0x0) {\n                workersParams[ti].workerAddresses.length++;\n                workersParams[ti].workerAddresses[wi] = workerAddresses[wi];\n            }\n        }\n        emit WorkersParameterized(seed, workerAddresses, true);\n        return ReturnValue.Ok;\n    }\n\n    // The workers parameters nearest the specified block number\n    function getWorkersParamsIndex(uint256 blockNumber)\n        internal\n        view\n        returns (int8)\n    {\n        int8 ci = - 1;\n        for (uint i = 0; i < workersParams.length; i++) {\n            if (workersParams[i].firstBlockNumber <= blockNumber && (ci == - 1 || workersParams[i].firstBlockNumber > workersParams[uint(ci)].firstBlockNumber)) {\n                ci = int8(i);\n            }\n        }\n        return ci;\n    }\n\n    /**\n    * The worker parameters corresponding to the specified block number\n    *\n    * @param blockNumber The reference block number\n    */\n    function getWorkersParams(uint256 blockNumber)\n        public\n        view\n        returns (uint256, uint256, address[])\n    {\n        // The workers parameters for a given block number\n        int8 idx = getWorkersParamsIndex(blockNumber);\n        require(idx != - 1, \"No workers parameters entry for specified block number\");\n\n        uint index = uint(idx);\n        WorkersParams memory _workerParams = workersParams[index];\n        address[] memory addrs = filterWorkers(_workerParams.workerAddresses);\n\n        return (_workerParams.firstBlockNumber, _workerParams.seed, addrs);\n    }\n\n    // Filter out bad values from a list of worker addresses\n    function filterWorkers(address[] addrs)\n        internal\n        view\n        returns (address[])\n    {\n        // TODO: I don't know why the list contains empty addresses, investigate\n        uint cpt = 0;\n        for (uint i = 0; i < addrs.length; i++) {\n            if (addrs[i] != 0x0 && workers[addrs[i]].signer != principal) {\n                cpt++;\n            }\n        }\n        address[] memory _workers = new address[](cpt);\n        uint cur = 0;\n        for (uint iw = 0; iw < addrs.length; iw++) {\n            if (addrs[iw] != 0x0 && workers[addrs[iw]].signer != principal) {\n                _workers[cur] = addrs[iw];\n                cur++;\n            }\n        }\n        return _workers;\n    }\n\n    /**\n    * Apply pseudo-randomness to discover the selected worker for the specified task\n    *\n    * @param blockNumber The reference block number\n    * @param taskId The reference task id\n    */\n    function selectWorker(uint256 blockNumber, bytes32 taskId)\n        public\n        view\n        returns (address)\n    {\n        (uint256 b, uint256 seed, address[] memory workerArray) = getWorkersParams(blockNumber);\n        address[] memory _workers = filterWorkers(workerArray);\n\n        bytes32 hash = keccak256(abi.encodePacked(seed, taskId));\n        uint256 index = uint256(hash) % _workers.length;\n        return _workers[index];\n    }\n\n    /**\n    * The RLP encoded report returned by the IAS server\n    *\n    * @param custodian The worker's custodian address\n    */\n    function getReport(address custodian)\n        public\n        view\n        workerRegistered(custodian)\n        returns (address, bytes)\n    {\n        // The RLP encoded report and signer's address for the specified worker\n        require(workers[custodian].signer != 0x0, \"Worker not registered\");\n        return (workers[custodian].signer, workers[custodian].report);\n    }\n}\n",
  "sourcePath": "/Users/ah/Documents/portalNetwork/blockchain/enigma/enigma-template-dapp/contracts/Enigma.sol",
  "compiler": {
    "name": "solc",
    "version": "0.4.24+commit.e67f0147.Emscripten.clang"
  },
  "schemaVersion": "2.0.0",
  "updatedAt": "2018-10-09T09:56:37.369Z"
}