{
  "contractName": "Auction",
  "abi": [
    {
      "constant": true,
      "inputs": [],
      "name": "rewardClaimed",
      "outputs": [
        {
          "name": "",
          "type": "bool"
        }
      ],
      "payable": false,
      "stateMutability": "view",
      "type": "function"
    },
    {
      "constant": true,
      "inputs": [
        {
          "name": "",
          "type": "uint256"
        }
      ],
      "name": "bidderAddresses",
      "outputs": [
        {
          "name": "",
          "type": "address"
        }
      ],
      "payable": false,
      "stateMutability": "view",
      "type": "function"
    },
    {
      "constant": true,
      "inputs": [],
      "name": "endTime",
      "outputs": [
        {
          "name": "",
          "type": "uint256"
        }
      ],
      "payable": false,
      "stateMutability": "view",
      "type": "function"
    },
    {
      "constant": true,
      "inputs": [],
      "name": "startTime",
      "outputs": [
        {
          "name": "",
          "type": "uint256"
        }
      ],
      "payable": false,
      "stateMutability": "view",
      "type": "function"
    },
    {
      "constant": true,
      "inputs": [],
      "name": "owner",
      "outputs": [
        {
          "name": "",
          "type": "address"
        }
      ],
      "payable": false,
      "stateMutability": "view",
      "type": "function"
    },
    {
      "constant": true,
      "inputs": [],
      "name": "enigma",
      "outputs": [
        {
          "name": "",
          "type": "address"
        }
      ],
      "payable": false,
      "stateMutability": "view",
      "type": "function"
    },
    {
      "constant": true,
      "inputs": [],
      "name": "state",
      "outputs": [
        {
          "name": "",
          "type": "uint8"
        }
      ],
      "payable": false,
      "stateMutability": "view",
      "type": "function"
    },
    {
      "constant": true,
      "inputs": [],
      "name": "winningPrice",
      "outputs": [
        {
          "name": "",
          "type": "uint256"
        }
      ],
      "payable": false,
      "stateMutability": "view",
      "type": "function"
    },
    {
      "constant": true,
      "inputs": [],
      "name": "startingPrice",
      "outputs": [
        {
          "name": "",
          "type": "uint256"
        }
      ],
      "payable": false,
      "stateMutability": "view",
      "type": "function"
    },
    {
      "constant": true,
      "inputs": [],
      "name": "winner",
      "outputs": [
        {
          "name": "",
          "type": "address"
        }
      ],
      "payable": false,
      "stateMutability": "view",
      "type": "function"
    },
    {
      "constant": true,
      "inputs": [
        {
          "name": "",
          "type": "address"
        }
      ],
      "name": "stakeAmounts",
      "outputs": [
        {
          "name": "",
          "type": "uint256"
        }
      ],
      "payable": false,
      "stateMutability": "view",
      "type": "function"
    },
    {
      "constant": true,
      "inputs": [],
      "name": "enigmaCollectible",
      "outputs": [
        {
          "name": "",
          "type": "address"
        }
      ],
      "payable": false,
      "stateMutability": "view",
      "type": "function"
    },
    {
      "constant": true,
      "inputs": [
        {
          "name": "",
          "type": "address"
        }
      ],
      "name": "bidders",
      "outputs": [
        {
          "name": "hasBidded",
          "type": "bool"
        },
        {
          "name": "bidValue",
          "type": "bytes"
        }
      ],
      "payable": false,
      "stateMutability": "view",
      "type": "function"
    },
    {
      "inputs": [
        {
          "name": "_owner",
          "type": "address"
        },
        {
          "name": "_auctionLength",
          "type": "uint256"
        },
        {
          "name": "_startingPrice",
          "type": "uint256"
        },
        {
          "name": "_enigma",
          "type": "address"
        },
        {
          "name": "_enigmaCollectible",
          "type": "address"
        }
      ],
      "payable": false,
      "stateMutability": "nonpayable",
      "type": "constructor"
    },
    {
      "anonymous": false,
      "inputs": [
        {
          "indexed": false,
          "name": "bidder",
          "type": "bytes"
        }
      ],
      "name": "Bid",
      "type": "event"
    },
    {
      "anonymous": false,
      "inputs": [
        {
          "indexed": false,
          "name": "winner",
          "type": "address"
        },
        {
          "indexed": false,
          "name": "bidValue",
          "type": "uint256"
        }
      ],
      "name": "Winner",
      "type": "event"
    },
    {
      "constant": false,
      "inputs": [],
      "name": "stake",
      "outputs": [],
      "payable": true,
      "stateMutability": "payable",
      "type": "function"
    },
    {
      "constant": false,
      "inputs": [],
      "name": "withdraw",
      "outputs": [],
      "payable": false,
      "stateMutability": "nonpayable",
      "type": "function"
    },
    {
      "constant": false,
      "inputs": [
        {
          "name": "_bidValue",
          "type": "bytes"
        }
      ],
      "name": "bid",
      "outputs": [],
      "payable": false,
      "stateMutability": "nonpayable",
      "type": "function"
    },
    {
      "constant": false,
      "inputs": [],
      "name": "endAuction",
      "outputs": [],
      "payable": false,
      "stateMutability": "nonpayable",
      "type": "function"
    },
    {
      "constant": true,
      "inputs": [
        {
          "name": "_bidders",
          "type": "address[]"
        },
        {
          "name": "_bidAmounts",
          "type": "uint256[]"
        },
        {
          "name": "_stakeAmounts",
          "type": "uint256[]"
        }
      ],
      "name": "getHighestBidder",
      "outputs": [
        {
          "name": "",
          "type": "address"
        },
        {
          "name": "",
          "type": "uint256"
        }
      ],
      "payable": false,
      "stateMutability": "pure",
      "type": "function"
    },
    {
      "constant": false,
      "inputs": [
        {
          "name": "_highestBidder",
          "type": "address"
        },
        {
          "name": "_highestBidAmount",
          "type": "uint256"
        }
      ],
      "name": "updateWinner",
      "outputs": [],
      "payable": false,
      "stateMutability": "nonpayable",
      "type": "function"
    },
    {
      "constant": false,
      "inputs": [],
      "name": "claimReward",
      "outputs": [],
      "payable": false,
      "stateMutability": "nonpayable",
      "type": "function"
    },
    {
      "constant": false,
      "inputs": [],
      "name": "claimEther",
      "outputs": [],
      "payable": false,
      "stateMutability": "nonpayable",
      "type": "function"
    },
    {
      "constant": true,
      "inputs": [
        {
          "name": "_bidder",
          "type": "address"
        }
      ],
      "name": "hasBidded",
      "outputs": [
        {
          "name": "",
          "type": "bool"
        }
      ],
      "payable": false,
      "stateMutability": "view",
      "type": "function"
    },
    {
      "constant": true,
      "inputs": [
        {
          "name": "_bidder",
          "type": "address"
        }
      ],
      "name": "getBidValueForBidder",
      "outputs": [
        {
          "name": "",
          "type": "bytes"
        }
      ],
      "payable": false,
      "stateMutability": "view",
      "type": "function"
    },
    {
      "constant": true,
      "inputs": [
        {
          "name": "_bidder",
          "type": "address"
        }
      ],
      "name": "getStakeOfBidder",
      "outputs": [
        {
          "name": "",
          "type": "uint256"
        }
      ],
      "payable": false,
      "stateMutability": "view",
      "type": "function"
    },
    {
      "constant": true,
      "inputs": [],
      "name": "getBidders",
      "outputs": [
        {
          "name": "",
          "type": "address[]"
        }
      ],
      "payable": false,
      "stateMutability": "view",
      "type": "function"
    },
    {
      "constant": true,
      "inputs": [],
      "name": "getWinner",
      "outputs": [
        {
          "name": "",
          "type": "address"
        }
      ],
      "payable": false,
      "stateMutability": "view",
      "type": "function"
    }
  ],
  "bytecode": "0x608060405234801561001057600080fd5b5060405160a0806110548339810160409081528151602083015191830151606084015160809094015160008054600160a060020a03948516600160a060020a03199182161782556004939093554260018190559094016002556009805495841695831695909517909455600a80549290941691161760a060020a60ff021916909155610fb29081906100a290396000f3006080604052600436106101535763ffffffff7c010000000000000000000000000000000000000000000000000000000060003504166301b62b7881146101585780632fb3c48f146101815780633197cbb6146101b557806331e37530146101dc5780633a4b66f1146101fe5780633ccfd60b1461020657806355291dbd1461021b57806378e979251461023057806388901205146102455780638da5cb5b1461032f5780638e7ea5b214610344578063b24fd5c514610359578063b88a802f1461036e578063c19d93fb14610383578063c1f52604146103bc578063cb1e17cf146103d1578063cb6632ef146103f5578063d390b2d11461045a578063d6fbf202146104f0578063dfbf53ae14610505578063e5afa5661461051a578063e945f4261461053b578063ef4cec1f14610550578063f7b6d1a814610571578063fcc8f79314610592578063fe67a54b14610636575b600080fd5b34801561016457600080fd5b5061016d61064b565b604080519115158252519081900360200190f35b34801561018d57600080fd5b5061019960043561066d565b60408051600160a060020a039092168252519081900360200190f35b3480156101c157600080fd5b506101ca610695565b60408051918252519081900360200190f35b3480156101e857600080fd5b506101fc600480356024810191013561069b565b005b6101fc6107bc565b34801561021257600080fd5b506101fc6107f7565b34801561022757600080fd5b506101fc61087d565b34801561023c57600080fd5b506101ca6108e9565b34801561025157600080fd5b506040805160206004803580820135838102808601850190965280855261030c95369593946024949385019291829185019084908082843750506040805187358901803560208181028481018201909552818452989b9a998901989297509082019550935083925085019084908082843750506040805187358901803560208181028481018201909552818452989b9a9989019892975090820195509350839250850190849080828437509497506108ef9650505050505050565b60408051600160a060020a03909316835260208301919091528051918290030190f35b34801561033b57600080fd5b506101996109a2565b34801561035057600080fd5b506101996109b1565b34801561036557600080fd5b506101996109e8565b34801561037a57600080fd5b506101fc6109f7565b34801561038f57600080fd5b50610398610b1a565b604051808260028111156103a857fe5b60ff16815260200191505060405180910390f35b3480156103c857600080fd5b506101ca610b2a565b3480156103dd57600080fd5b506101fc600160a060020a0360043516602435610b30565b34801561040157600080fd5b5061040a610be8565b60408051602080825283518183015283519192839290830191858101910280838360005b8381101561044657818101518382015260200161042e565b505050509050019250505060405180910390f35b34801561046657600080fd5b5061047b600160a060020a0360043516610c4a565b6040805160208082528351818301528351919283929083019185019080838360005b838110156104b557818101518382015260200161049d565b50505050905090810190601f1680156104e25780820380516001836020036101000a031916815260200191505b509250505060405180910390f35b3480156104fc57600080fd5b506101ca610d70565b34801561051157600080fd5b50610199610d76565b34801561052657600080fd5b506101ca600160a060020a0360043516610d85565b34801561054757600080fd5b50610199610d97565b34801561055c57600080fd5b5061016d600160a060020a0360043516610da6565b34801561057d57600080fd5b506101ca600160a060020a0360043516610dc4565b34801561059e57600080fd5b506105b3600160a060020a0360043516610ddf565b604051808315151515815260200180602001828103825283818151815260200191508051906020019080838360005b838110156105fa5781810151838201526020016105e2565b50505050905090810190601f1680156106275780820380516001836020036101000a031916815260200191505b50935050505060405180910390f35b34801561064257600080fd5b506101fc610e8d565b600a547501000000000000000000000000000000000000000000900460ff1681565b600880548290811061067b57fe5b600091825260209091200154600160a060020a0316905081565b60025481565b60025442106106a957600080fd5b6004543360009081526007602052604090205410156106c757600080fd5b3360009081526006602052604090206106e4906001018383610eee565b503360009081526006602052604090205460ff16151561076857336000818152600660205260408120805460ff191660019081179091556008805491820181559091527ff3f7a9fe364faab93b216da50a3214154f22a0a2b415b23a84c8169e8b636ee301805473ffffffffffffffffffffffffffffffffffffffff191690911790555b7faf79f260d5d20710e65b2ec84855f86a4d8911fb087d40353f63e738e06320b582826040518080602001828103825284848281815260200192508082843760405192018290039550909350505050a15050565b6000600a5460a060020a900460ff1660028111156107d657fe5b146107e057600080fd5b336000908152600760205260409020805434019055565b60006002600a5460a060020a900460ff16600281111561081357fe5b1461081d57600080fd5b336000908152600760205260408120541161083757600080fd5b5033600081815260076020526040808220805490839055905190929183156108fc02918491818181858888f19350505050158015610879573d6000803e3d6000fd5b5050565b600054600160a060020a0316331461089457600080fd5b6002600a5460a060020a900460ff1660028111156108ae57fe5b146108b857600080fd5b600554604051339180156108fc02916000818181858888f193505050501580156108e6573d6000803e3d6000fd5b50565b60015481565b6000808080805b87518110156109955781878281518110151561090e57fe5b906020019060200201511180156109535750858181518110151561092e57fe5b90602001906020020151878281518110151561094657fe5b9060200190602002015111155b1561098d57868181518110151561096657fe5b906020019060200201519150878181518110151561098057fe5b9060200190602002015192505b6001016108f6565b5090969095509350505050565b600054600160a060020a031681565b60006002600a5460a060020a900460ff1660028111156109cd57fe5b146109d757600080fd5b50600354600160a060020a03165b90565b600954600160a060020a031681565b6002600a5460a060020a900460ff166002811115610a1157fe5b14610a1b57600080fd5b600354600160a060020a03163314610a3257600080fd5b600a547501000000000000000000000000000000000000000000900460ff1615610a5b57600080fd5b600a805475ff000000000000000000000000000000000000000000191675010000000000000000000000000000000000000000001790819055600254604080517f79c65068000000000000000000000000000000000000000000000000000000008152336004820152602481019290925251600160a060020a03909216916379c650689160448082019260009290919082900301818387803b158015610b0057600080fd5b505af1158015610b14573d6000803e3d6000fd5b50505050565b600a5460a060020a900460ff1681565b60055481565b6003805473ffffffffffffffffffffffffffffffffffffffff1916600160a060020a0384169081179091556005829055600a805474ff0000000000000000000000000000000000000000191674020000000000000000000000000000000000000000179055600081815260076020908152604091829020805485900390558151928352820183905280517f9c2270628a9b29d30ae96b6c4c14ed646ee134febdce38a5b77f2bde9cea2e209281900390910190a15050565b60606008805480602002602001604051908101604052809291908181526020018280548015610c4057602002820191906000526020600020905b8154600160a060020a03168152600190910190602001808311610c22575b5050505050905090565b6060610c5582610da6565b1515610cc257604080517f08c379a000000000000000000000000000000000000000000000000000000000815260206004820152601860248201527f5573657220686173206e6f7420626964646564207965742e0000000000000000604482015290519081900360640190fd5b600160a060020a038216600090815260066020908152604091829020600190810180548451600293821615610100026000190190911692909204601f810184900484028301840190945283825290929091830182828015610d645780601f10610d3957610100808354040283529160200191610d64565b820191906000526020600020905b815481529060010190602001808311610d4757829003601f168201915b50505050509050919050565b60045481565b600354600160a060020a031681565b60076020526000908152604090205481565b600a54600160a060020a031681565b600160a060020a031660009081526006602052604090205460ff1690565b600160a060020a031660009081526007602052604090205490565b6006602090815260009182526040918290208054600180830180548651600261010094831615949094026000190190911692909204601f810186900486028301860190965285825260ff909216949293909290830182828015610e835780601f10610e5857610100808354040283529160200191610e83565b820191906000526020600020905b815481529060010190602001808311610e6657829003601f168201915b5050505050905082565b600054600160a060020a03163314610ea457600080fd5b6000600a5460a060020a900460ff166002811115610ebe57fe5b14610ec857600080fd5b600a805474ff0000000000000000000000000000000000000000191660a060020a179055565b828054600181600116156101000203166002900490600052602060002090601f016020900481019282601f10610f2f5782800160ff19823516178555610f5c565b82800160010185558215610f5c579182015b82811115610f5c578235825591602001919060010190610f41565b50610f68929150610f6c565b5090565b6109e591905b80821115610f685760008155600101610f725600a165627a7a72305820ca58645de69217c0582d23f3ff7851fecfb27c7f0cfdd068d17188d912f9a8de0029",
  "source": "// Auction.sol\n// Enigma, 2018\n// Implements a simple sealed bid auction.\n\npragma solidity ^0.4.24;\n\nimport \"./Enigma.sol\";\nimport \"./EnigmaCollectible.sol\";\n\ncontract Auction {\n\n  /* Determine the state of the auction. */\n  enum AuctionState { IN_PROGRESS, CALCULATING, COMPLETED }\n\n  /* EVENTS */\n  event Bid(bytes bidder);\n  event Winner(address winner, uint bidValue);\n\n  /* BIDDER */\n  struct Bidder {\n    bool hasBidded;\n    bytes bidValue;\n  }\n\n  /* STATE VARIABLES */\n  address public owner;\n  uint public startTime;\n  uint public endTime;\n  address public winner;\n  uint public startingPrice;\n  uint public winningPrice;\n  mapping(address => Bidder) public bidders;\n  mapping(address => uint) public stakeAmounts;\n  address[] public bidderAddresses;\n  Enigma public enigma;\n  EnigmaCollectible public enigmaCollectible;\n  AuctionState public state;\n  bool public rewardClaimed;\n\n  /* CONSTRUCTOR */\n  constructor(address _owner, uint _auctionLength, uint _startingPrice, address _enigma, address _enigmaCollectible) public {\n    owner = _owner;\n    startingPrice = _startingPrice;\n    startTime = now;\n    endTime = startTime + _auctionLength * 1 seconds;\n    enigma = Enigma(_enigma);\n    enigmaCollectible = EnigmaCollectible(_enigmaCollectible);\n    state = AuctionState.IN_PROGRESS;  // redundant\n  }\n\n  /*\n   * Stake Ether in the contract to create a binding commitment. You can increase stake anytime within the bidding period.\n   */\n  function stake() payable external {\n    require(state == AuctionState.IN_PROGRESS);\n    stakeAmounts[msg.sender] += msg.value;\n  }\n\n  /*\n   * Withdraw Ether after the bidding period has ended.\n   */\n  function withdraw() external {\n    require(state == AuctionState.COMPLETED);\n    require(stakeAmounts[msg.sender] > 0);\n    uint amount = stakeAmounts[msg.sender];\n    stakeAmounts[msg.sender] = 0;\n    msg.sender.transfer(amount);\n  }\n\n  /*\n   * Bid in the auction. The value of the bid(in wei) is encrypted.\n   * NOTE: A user can bid multiple times as long as it's within the bidding period.\n   */\n  function bid(bytes _bidValue) external {\n    require(now < endTime);  // a user can only bid within the time period\n    require(stakeAmounts[msg.sender] >= startingPrice);  // a user can only bid if they have enough stake to fill the initial starting value\n    bidders[msg.sender].bidValue = _bidValue;\n    if (!(bidders[msg.sender].hasBidded)) {\n      bidders[msg.sender].hasBidded = true;\n      bidderAddresses.push(msg.sender);// For the highest bidder computing\n    }\n    emit Bid(_bidValue);\n  }\n\n  /*\n   * End the auction. Only the creator of the auction can end the auction(when the bidding period has expired).\n   */\n  function endAuction() external isOwner {\n    require(state == AuctionState.IN_PROGRESS);\n    //require(now >= endTime);\n    state = AuctionState.CALCULATING;\n  }\n\n  /*\n   * The callable function. Gets the highest bidder and bid amount for the auction.\n   * NOTE: In the event of a tie, we're just taking the first bidder.\n   */\n  function getHighestBidder(address[] _bidders, uint[] _bidAmounts, uint[] _stakeAmounts) public pure returns (address, uint) {\n    address highestBidder;\n    uint highestBidAmount;\n    for (uint i = 0; i < _bidders.length; i++) {\n      if ((_bidAmounts[i] > highestBidAmount) && (_bidAmounts[i] <= _stakeAmounts[i])) {\n        highestBidAmount = _bidAmounts[i];\n        highestBidder = _bidders[i];\n      }\n    }\n    return (highestBidder, highestBidAmount);\n  }\n\n  /*\n   * The callback function. Updates the contract state.\n   */\n  function updateWinner(address _highestBidder, uint _highestBidAmount) public\n    //onlyEnigma comment this out for testing\n    {\n    winner = _highestBidder;\n    winningPrice = _highestBidAmount;\n    state = AuctionState.COMPLETED;\n    stakeAmounts[_highestBidder] -= winningPrice;\n    emit Winner(_highestBidder, _highestBidAmount);\n  }\n\n  /*\n   * Allow a user to claim their reward.\n   */\n  function claimReward() external {\n    require(state == AuctionState.COMPLETED);\n    require(msg.sender == winner);\n    require(!rewardClaimed);\n    rewardClaimed = true;\n    enigmaCollectible.mintToken(msg.sender, endTime);  // mint an ERC721 Enigma Collectible with arbitrary tokenID (just use the end time)\n  }\n\n  /*\n   * Allow the creator of the auction to claim the winner's stake.\n   */\n  function claimEther() external isOwner {\n    require(state == AuctionState.COMPLETED);\n    msg.sender.transfer(winningPrice);\n  }\n\n  /*\n   * Modifier that checks that the contract caller is the Enigma contract.\n   */\n  modifier onlyEnigma() {\n    require(msg.sender == address(enigma));\n    _;\n  }\n\n  /*\n   * Modifier that checks if the caller is the creator of the auction.\n   */\n  modifier isOwner() {\n    require(msg.sender == owner);\n    _;\n  }\n\n  /*\n   * Check that a user has bidded.\n   */\n  function hasBidded(address _bidder) public view returns (bool) {\n    return bidders[_bidder].hasBidded;\n  }\n\n  /*\n   * Get the encrypted bid value for a bidder.\n   */\n  function getBidValueForBidder(address _bidder) public view returns (bytes) {\n    require(hasBidded(_bidder), \"User has not bidded yet.\");\n    return bidders[_bidder].bidValue;\n  }\n\n  /*\n   * Get the staked Ether amount for a given bidder.\n   */\n  function getStakeOfBidder(address _bidder) public view returns (uint) {\n    return stakeAmounts[_bidder];\n  }\n\n  /*\n   * Get the addresses of all the bidders.\n   */\n  function getBidders() public view returns (address[]) {\n    return bidderAddresses;\n  }\n\n  /*\n   * Get the winner of the auction (if available).\n   */\n  function getWinner() public view returns(address) {\n    require(state == AuctionState.COMPLETED);\n    return winner;\n  }\n\n}\n",
  "sourcePath": "/Users/phyrex/Documents/git/portal.network/Secret-Auction-Demo/contracts/Auction.sol",
  "compiler": {
    "name": "solc",
    "version": "0.4.24+commit.e67f0147.Emscripten.clang"
  },
  "schemaVersion": "2.0.0",
  "updatedAt": "2018-10-18T04:18:36.318Z"
}